{
  "contractName": "CoinFlip",
  "abi": [
    {
      "inputs": [],
      "stateMutability": "nonpayable",
      "type": "constructor"
    },
    {
      "anonymous": false,
      "inputs": [
        {
          "indexed": true,
          "internalType": "address",
          "name": "player",
          "type": "address"
        },
        {
          "indexed": false,
          "internalType": "uint256",
          "name": "amount",
          "type": "uint256"
        },
        {
          "indexed": false,
          "internalType": "bool",
          "name": "won",
          "type": "bool"
        }
      ],
      "name": "FlipResult",
      "type": "event"
    },
    {
      "inputs": [],
      "name": "owner",
      "outputs": [
        {
          "internalType": "address",
          "name": "",
          "type": "address"
        }
      ],
      "stateMutability": "view",
      "type": "function",
      "constant": true
    },
    {
      "stateMutability": "payable",
      "type": "receive",
      "payable": true
    },
    {
      "inputs": [
        {
          "internalType": "bool",
          "name": "_guess",
          "type": "bool"
        }
      ],
      "name": "flipCoin",
      "outputs": [
        {
          "internalType": "bool",
          "name": "",
          "type": "bool"
        }
      ],
      "stateMutability": "payable",
      "type": "function",
      "payable": true
    },
    {
      "inputs": [],
      "name": "fundContract",
      "outputs": [],
      "stateMutability": "payable",
      "type": "function",
      "payable": true
    },
    {
      "inputs": [],
      "name": "getContractBalance",
      "outputs": [
        {
          "internalType": "uint256",
          "name": "",
          "type": "uint256"
        }
      ],
      "stateMutability": "view",
      "type": "function",
      "constant": true
    }
  ],
  "bytecode": "0x608060405234801561001057600080fd5b50336000806101000a81548173ffffffffffffffffffffffffffffffffffffffff021916908373ffffffffffffffffffffffffffffffffffffffff16021790555061061d806100606000396000f3fe6080604052600436106100435760003560e01c80636f9fb98a1461004f5780637b8ff38f1461007a5780638da5cb5b146100aa578063bd097e21146100d55761004a565b3661004a57005b600080fd5b34801561005b57600080fd5b506100646100df565b604051610071919061044a565b60405180910390f35b610094600480360381019061008f91906102d8565b6100e7565b6040516100a191906103ef565b60405180910390f35b3480156100b657600080fd5b506100bf61029d565b6040516100cc91906103d4565b60405180910390f35b6100dd6102c1565b005b600047905090565b600080341161012b576040517f08c379a00000000000000000000000000000000000000000000000000000000081526004016101229061042a565b60405180910390fd5b60008060024261013b9190610541565b1490508215158115151415610241576000600234610159919061049f565b90508047101561019e576040517f08c379a00000000000000000000000000000000000000000000000000000000081526004016101959061040a565b60405180910390fd5b3373ffffffffffffffffffffffffffffffffffffffff166108fc829081150290604051600060405180830381858888f193505050501580156101e4573d6000803e3d6000fd5b503373ffffffffffffffffffffffffffffffffffffffff167fe293da8e6ebe4a2b12a67fd8370584c77f98543c4f4f183b4a64f37be8d87ec934600160405161022e929190610465565b60405180910390a2600192505050610298565b3373ffffffffffffffffffffffffffffffffffffffff167fe293da8e6ebe4a2b12a67fd8370584c77f98543c4f4f183b4a64f37be8d87ec934600060405161028a929190610465565b60405180910390a260009150505b919050565b60008054906101000a900473ffffffffffffffffffffffffffffffffffffffff1681565b565b6000813590506102d2816105d0565b92915050565b6000602082840312156102ea57600080fd5b60006102f8848285016102c3565b91505092915050565b61030a816104f9565b82525050565b6103198161050b565b82525050565b600061032c603f8361048e565b91507f436f6e747261637420646f6573206e6f74206861766520656e6f75676820667560008301527f6e647320746f20636f76657220706f74656e7469616c2077696e6e696e6773006020830152604082019050919050565b600061039260158361048e565b91507f596f75206d7573742062657420736f6d652045544800000000000000000000006000830152602082019050919050565b6103ce81610537565b82525050565b60006020820190506103e96000830184610301565b92915050565b60006020820190506104046000830184610310565b92915050565b600060208201905081810360008301526104238161031f565b9050919050565b6000602082019050818103600083015261044381610385565b9050919050565b600060208201905061045f60008301846103c5565b92915050565b600060408201905061047a60008301856103c5565b6104876020830184610310565b9392505050565b600082825260208201905092915050565b60006104aa82610537565b91506104b583610537565b9250817fffffffffffffffffffffffffffffffffffffffffffffffffffffffffffffffff04831182151516156104ee576104ed610572565b5b828202905092915050565b600061050482610517565b9050919050565b60008115159050919050565b600073ffffffffffffffffffffffffffffffffffffffff82169050919050565b6000819050919050565b600061054c82610537565b915061055783610537565b925082610567576105666105a1565b5b828206905092915050565b7f4e487b7100000000000000000000000000000000000000000000000000000000600052601160045260246000fd5b7f4e487b7100000000000000000000000000000000000000000000000000000000600052601260045260246000fd5b6105d98161050b565b81146105e457600080fd5b5056fea2646970667358221220b035f86297e4b2bf8d6755616e38f49bed6cf49e21241a460f97fdfd4012601064736f6c63430008000033",
  "immutableReferences": {},
  "source": "// SPDX-License-Identifier: MIT\r\npragma solidity ^0.8.0;\r\n\r\ncontract CoinFlip {\r\n    address public owner;\r\n\r\n    event FlipResult(address indexed player, uint256 amount, bool won);\r\n\r\n    constructor() {\r\n        owner = msg.sender;\r\n    }\r\n\r\n    function flipCoin(bool _guess) public payable returns (bool) {\r\n        require(msg.value > 0, \"You must bet some ETH\");\r\n\r\n        // Simple coin flip logic\r\n        bool coinFlip = (block.timestamp % 2) == 0;\r\n\r\n        if (coinFlip == _guess) {\r\n            uint256 winnings = msg.value * 2;\r\n            require(address(this).balance >= winnings, \"Contract does not have enough funds to cover potential winnings\");\r\n            payable(msg.sender).transfer(winnings);\r\n            emit FlipResult(msg.sender, msg.value, true);\r\n            return true;\r\n        } else {\r\n            emit FlipResult(msg.sender, msg.value, false);\r\n            return false;\r\n        }\r\n    }\r\n\r\n    // Function to fund the contract\r\n    function fundContract() public payable {}\r\n\r\n    // Function to check the contract balance\r\n    function getContractBalance() public view returns (uint256) {\r\n        return address(this).balance;\r\n    }\r\n\r\n    // Fallback function to receive ETH\r\n    receive() external payable {}\r\n}\r\n",
  "sourcePath": "C:\\Users\\Sanjit Mathur\\OneDrive\\Documents\\Developing programs\\Blockchain\\coinflip-game\\contracts\\CoinFlip.sol",
  "compiler": {
    "name": "solc",
    "version": "0.8.0+commit.c7dfd78e.Emscripten.clang"
  },
  "schemaVersion": "3.4.16",
  "updatedAt": "2024-08-26T08:57:30.618Z",
  "networkType": "ethereum",
  "devdoc": {
    "kind": "dev",
    "methods": {},
    "version": 1
  },
  "userdoc": {
    "kind": "user",
    "methods": {},
    "version": 1
  }
}